{
  "contractName": "CourseMarketplace",
  "abi": [
    {
      "inputs": [],
      "stateMutability": "nonpayable",
      "type": "constructor"
    },
    {
      "inputs": [],
      "name": "AlreadyOwner",
      "type": "error"
    },
    {
      "inputs": [],
      "name": "CourseAlreadyOwned",
      "type": "error"
    },
    {
      "inputs": [],
      "name": "CourseNotCreated",
      "type": "error"
    },
    {
      "inputs": [],
      "name": "InvalidCourseOwner",
      "type": "error"
    },
    {
      "inputs": [],
      "name": "InvalidState",
      "type": "error"
    },
    {
      "inputs": [],
      "name": "OnlyOwner",
      "type": "error"
    },
    {
      "inputs": [],
      "name": "isStopped",
      "outputs": [
        {
          "internalType": "bool",
          "name": "",
          "type": "bool"
        }
      ],
      "stateMutability": "view",
      "type": "function",
      "constant": true
    },
    {
      "stateMutability": "payable",
      "type": "receive",
      "payable": true
    },
    {
      "inputs": [
        {
          "internalType": "uint256",
          "name": "amount",
          "type": "uint256"
        }
      ],
      "name": "withdraw",
      "outputs": [],
      "stateMutability": "nonpayable",
      "type": "function"
    },
    {
      "inputs": [],
      "name": "emergencyWithdraw",
      "outputs": [],
      "stateMutability": "nonpayable",
      "type": "function"
    },
    {
      "inputs": [],
      "name": "selfDestruct",
      "outputs": [],
      "stateMutability": "nonpayable",
      "type": "function"
    },
    {
      "inputs": [],
      "name": "stopContract",
      "outputs": [],
      "stateMutability": "nonpayable",
      "type": "function"
    },
    {
      "inputs": [],
      "name": "resumeContract",
      "outputs": [],
      "stateMutability": "nonpayable",
      "type": "function"
    },
    {
      "inputs": [
        {
          "internalType": "bytes16",
          "name": "courseId",
          "type": "bytes16"
        },
        {
          "internalType": "bytes32",
          "name": "proof",
          "type": "bytes32"
        }
      ],
      "name": "purchaseCourse",
      "outputs": [
        {
          "internalType": "bytes32",
          "name": "",
          "type": "bytes32"
        }
      ],
      "stateMutability": "payable",
      "type": "function",
      "payable": true
    },
    {
      "inputs": [
        {
          "internalType": "bytes32",
          "name": "courseHash",
          "type": "bytes32"
        }
      ],
      "name": "repurchaseCourse",
      "outputs": [],
      "stateMutability": "payable",
      "type": "function",
      "payable": true
    },
    {
      "inputs": [
        {
          "internalType": "bytes32",
          "name": "courseHash",
          "type": "bytes32"
        }
      ],
      "name": "activateCourse",
      "outputs": [],
      "stateMutability": "nonpayable",
      "type": "function"
    },
    {
      "inputs": [
        {
          "internalType": "bytes32",
          "name": "courseHash",
          "type": "bytes32"
        }
      ],
      "name": "deactivateCourse",
      "outputs": [],
      "stateMutability": "nonpayable",
      "type": "function"
    },
    {
      "inputs": [],
      "name": "getCourseCount",
      "outputs": [
        {
          "internalType": "uint256",
          "name": "",
          "type": "uint256"
        }
      ],
      "stateMutability": "view",
      "type": "function",
      "constant": true
    },
    {
      "inputs": [
        {
          "internalType": "uint256",
          "name": "id",
          "type": "uint256"
        }
      ],
      "name": "getCourseHash",
      "outputs": [
        {
          "internalType": "bytes32",
          "name": "",
          "type": "bytes32"
        }
      ],
      "stateMutability": "view",
      "type": "function",
      "constant": true
    },
    {
      "inputs": [
        {
          "internalType": "bytes32",
          "name": "courseHash",
          "type": "bytes32"
        }
      ],
      "name": "getCourseByHash",
      "outputs": [
        {
          "components": [
            {
              "internalType": "uint256",
              "name": "id",
              "type": "uint256"
            },
            {
              "internalType": "uint256",
              "name": "price",
              "type": "uint256"
            },
            {
              "internalType": "bytes32",
              "name": "proof",
              "type": "bytes32"
            },
            {
              "internalType": "address",
              "name": "owner",
              "type": "address"
            },
            {
              "internalType": "enum CourseMarketplace.State",
              "name": "state",
              "type": "uint8"
            }
          ],
          "internalType": "struct CourseMarketplace.Course",
          "name": "",
          "type": "tuple"
        }
      ],
      "stateMutability": "view",
      "type": "function",
      "constant": true
    },
    {
      "inputs": [],
      "name": "getContractOwner",
      "outputs": [
        {
          "internalType": "address",
          "name": "",
          "type": "address"
        }
      ],
      "stateMutability": "view",
      "type": "function",
      "constant": true
    },
    {
      "inputs": [
        {
          "internalType": "address",
          "name": "newOwner",
          "type": "address"
        }
      ],
      "name": "transferOwnership",
      "outputs": [],
      "stateMutability": "nonpayable",
      "type": "function"
    }
  ],
  "bytecode": "0x608060405260008060006101000a81548160ff02191690831515021790555034801561002a57600080fd5b5033600460006101000a81548173ffffffffffffffffffffffffffffffffffffffff021916908373ffffffffffffffffffffffffffffffffffffffff1602179055506122878061007b6000396000f3fe6080604052600436106100ec5760003560e01c80638158045a1161008a578063c4bc5da511610059578063c4bc5da5146102b8578063d76821cb146102cf578063db2e21bc146102ff578063f2fde38b14610316576100f3565b80638158045a14610210578063935d7e6d1461024d57806396cfda06146102765780639cb8a26a146102a1576100f3565b80633f683b6a116100c65780633f683b6a14610161578063442890d51461018c5780636136e1eb146101b757806362e4e6ac146101d3576100f3565b806312253a6c146100f85780632e1a7d4d1461010f5780633926257214610138576100f3565b366100f357005b600080fd5b34801561010457600080fd5b5061010d61033f565b005b34801561011b57600080fd5b5061013660048036038101906101319190611c6b565b6103e2565b005b34801561014457600080fd5b5061015f600480360381019061015a9190611c42565b61053b565b005b34801561016d57600080fd5b506101766108eb565b6040516101839190611ead565b60405180910390f35b34801561019857600080fd5b506101a16108fc565b6040516101ae9190611e92565b60405180910390f35b6101d160048036038101906101cc9190611c42565b610926565b005b3480156101df57600080fd5b506101fa60048036038101906101f59190611c42565b610de0565b6040516102079190611f63565b60405180910390f35b34801561021c57600080fd5b5061023760048036038101906102329190611c6b565b610f08565b6040516102449190611ec8565b60405180910390f35b34801561025957600080fd5b50610274600480360381019061026f9190611c42565b610f25565b005b34801561028257600080fd5b5061028b6113b4565b6040516102989190611f7e565b60405180910390f35b3480156102ad57600080fd5b506102b66113be565b005b3480156102c457600080fd5b506102cd6114cd565b005b6102e960048036038101906102e49190611c06565b611570565b6040516102f69190611ec8565b60405180910390f35b34801561030b57600080fd5b5061031461180f565b005b34801561032257600080fd5b5061033d60048036038101906103389190611bdd565b6119b4565b005b600460009054906101000a900473ffffffffffffffffffffffffffffffffffffffff1673ffffffffffffffffffffffffffffffffffffffff163373ffffffffffffffffffffffffffffffffffffffff16146103c6576040517f5fc483c500000000000000000000000000000000000000000000000000000000815260040160405180910390fd5b60016000806101000a81548160ff021916908315150217905550565b600460009054906101000a900473ffffffffffffffffffffffffffffffffffffffff1673ffffffffffffffffffffffffffffffffffffffff163373ffffffffffffffffffffffffffffffffffffffff1614610469576040517f5fc483c500000000000000000000000000000000000000000000000000000000815260040160405180910390fd5b6000600460009054906101000a900473ffffffffffffffffffffffffffffffffffffffff1673ffffffffffffffffffffffffffffffffffffffff16826040516104b190611e7d565b60006040518083038185875af1925050503d80600081146104ee576040519150601f19603f3d011682016040523d82523d6000602084013e6104f3565b606091505b5050905080610537576040517f08c379a000000000000000000000000000000000000000000000000000000000815260040161052e90611ee3565b60405180910390fd5b5050565b600460009054906101000a900473ffffffffffffffffffffffffffffffffffffffff1673ffffffffffffffffffffffffffffffffffffffff163373ffffffffffffffffffffffffffffffffffffffff16146105c2576040517f5fc483c500000000000000000000000000000000000000000000000000000000815260040160405180910390fd5b60008054906101000a900460ff1615610610576040517f08c379a000000000000000000000000000000000000000000000000000000000815260040161060790611f43565b60405180910390fd5b80600073ffffffffffffffffffffffffffffffffffffffff166001600083815260200190815260200160002060030160009054906101000a900473ffffffffffffffffffffffffffffffffffffffff1673ffffffffffffffffffffffffffffffffffffffff1614156106ae576040517ff252615600000000000000000000000000000000000000000000000000000000815260040160405180910390fd5b816000600160008381526020019081526020016000206040518060a00160405290816000820154815260200160018201548152602001600282015481526020016003820160009054906101000a900473ffffffffffffffffffffffffffffffffffffffff1673ffffffffffffffffffffffffffffffffffffffff1673ffffffffffffffffffffffffffffffffffffffff1681526020016003820160149054906101000a900460ff16600281111561078e577f4e487b7100000000000000000000000000000000000000000000000000000000600052602160045260246000fd5b60028111156107c6577f4e487b7100000000000000000000000000000000000000000000000000000000600052602160045260246000fd5b81525050905060006002811115610806577f4e487b7100000000000000000000000000000000000000000000000000000000600052602160045260246000fd5b81608001516002811115610843577f4e487b7100000000000000000000000000000000000000000000000000000000600052602160045260246000fd5b1461087a576040517fbaf3f0f700000000000000000000000000000000000000000000000000000000815260040160405180910390fd5b600060016000868152602001908152602001600020905060018160030160146101000a81548160ff021916908360028111156108df577f4e487b7100000000000000000000000000000000000000000000000000000000600052602160045260246000fd5b02179055505050505050565b60008054906101000a900460ff1681565b6000600460009054906101000a900473ffffffffffffffffffffffffffffffffffffffff16905090565b60008054906101000a900460ff1615610974576040517f08c379a000000000000000000000000000000000000000000000000000000000815260040161096b90611f43565b60405180910390fd5b80600073ffffffffffffffffffffffffffffffffffffffff166001600083815260200190815260200160002060030160009054906101000a900473ffffffffffffffffffffffffffffffffffffffff1673ffffffffffffffffffffffffffffffffffffffff161415610a12576040517ff252615600000000000000000000000000000000000000000000000000000000815260040160405180910390fd5b816000600160008381526020019081526020016000206040518060a00160405290816000820154815260200160018201548152602001600282015481526020016003820160009054906101000a900473ffffffffffffffffffffffffffffffffffffffff1673ffffffffffffffffffffffffffffffffffffffff1673ffffffffffffffffffffffffffffffffffffffff1681526020016003820160149054906101000a900460ff166002811115610af2577f4e487b7100000000000000000000000000000000000000000000000000000000600052602160045260246000fd5b6002811115610b2a577f4e487b7100000000000000000000000000000000000000000000000000000000600052602160045260246000fd5b8152505090503373ffffffffffffffffffffffffffffffffffffffff16816060015173ffffffffffffffffffffffffffffffffffffffff1614610b99576040517f936ca09e00000000000000000000000000000000000000000000000000000000815260040160405180910390fd5b836000600160008381526020019081526020016000206040518060a00160405290816000820154815260200160018201548152602001600282015481526020016003820160009054906101000a900473ffffffffffffffffffffffffffffffffffffffff1673ffffffffffffffffffffffffffffffffffffffff1673ffffffffffffffffffffffffffffffffffffffff1681526020016003820160149054906101000a900460ff166002811115610c79577f4e487b7100000000000000000000000000000000000000000000000000000000600052602160045260246000fd5b6002811115610cb1577f4e487b7100000000000000000000000000000000000000000000000000000000600052602160045260246000fd5b815250509050600280811115610cf0577f4e487b7100000000000000000000000000000000000000000000000000000000600052602160045260246000fd5b81608001516002811115610d2d577f4e487b7100000000000000000000000000000000000000000000000000000000600052602160045260246000fd5b14610d64576040517fbaf3f0f700000000000000000000000000000000000000000000000000000000815260040160405180910390fd5b600060016000888152602001908152602001600020905060008160030160146101000a81548160ff02191690836002811115610dc9577f4e487b7100000000000000000000000000000000000000000000000000000000600052602160045260246000fd5b021790555034816001018190555050505050505050565b610de8611b09565b600160008381526020019081526020016000206040518060a00160405290816000820154815260200160018201548152602001600282015481526020016003820160009054906101000a900473ffffffffffffffffffffffffffffffffffffffff1673ffffffffffffffffffffffffffffffffffffffff1673ffffffffffffffffffffffffffffffffffffffff1681526020016003820160149054906101000a900460ff166002811115610ec5577f4e487b7100000000000000000000000000000000000000000000000000000000600052602160045260246000fd5b6002811115610efd577f4e487b7100000000000000000000000000000000000000000000000000000000600052602160045260246000fd5b815250509050919050565b600060026000838152602001908152602001600020549050919050565b600460009054906101000a900473ffffffffffffffffffffffffffffffffffffffff1673ffffffffffffffffffffffffffffffffffffffff163373ffffffffffffffffffffffffffffffffffffffff1614610fac576040517f5fc483c500000000000000000000000000000000000000000000000000000000815260040160405180910390fd5b60008054906101000a900460ff1615610ffa576040517f08c379a0000000000000000000000000000000000000000000000000000000008152600401610ff190611f43565b60405180910390fd5b80600073ffffffffffffffffffffffffffffffffffffffff166001600083815260200190815260200160002060030160009054906101000a900473ffffffffffffffffffffffffffffffffffffffff1673ffffffffffffffffffffffffffffffffffffffff161415611098576040517ff252615600000000000000000000000000000000000000000000000000000000815260040160405180910390fd5b816000600160008381526020019081526020016000206040518060a00160405290816000820154815260200160018201548152602001600282015481526020016003820160009054906101000a900473ffffffffffffffffffffffffffffffffffffffff1673ffffffffffffffffffffffffffffffffffffffff1673ffffffffffffffffffffffffffffffffffffffff1681526020016003820160149054906101000a900460ff166002811115611178577f4e487b7100000000000000000000000000000000000000000000000000000000600052602160045260246000fd5b60028111156111b0577f4e487b7100000000000000000000000000000000000000000000000000000000600052602160045260246000fd5b815250509050600060028111156111f0577f4e487b7100000000000000000000000000000000000000000000000000000000600052602160045260246000fd5b8160800151600281111561122d577f4e487b7100000000000000000000000000000000000000000000000000000000600052602160045260246000fd5b14611264576040517fbaf3f0f700000000000000000000000000000000000000000000000000000000815260040160405180910390fd5b600060016000868152602001908152602001600020905060008160030160009054906101000a900473ffffffffffffffffffffffffffffffffffffffff1673ffffffffffffffffffffffffffffffffffffffff1682600101546040516112c990611e7d565b60006040518083038185875af1925050503d8060008114611306576040519150601f19603f3d011682016040523d82523d6000602084013e61130b565b606091505b505090508061134f576040517f08c379a000000000000000000000000000000000000000000000000000000000815260040161134690611f03565b60405180910390fd5b60028260030160146101000a81548160ff0219169083600281111561139d577f4e487b7100000000000000000000000000000000000000000000000000000000600052602160045260246000fd5b021790555060008260010181905550505050505050565b6000600354905090565b60008054906101000a900460ff1661140b576040517f08c379a000000000000000000000000000000000000000000000000000000000815260040161140290611f23565b60405180910390fd5b600460009054906101000a900473ffffffffffffffffffffffffffffffffffffffff1673ffffffffffffffffffffffffffffffffffffffff163373ffffffffffffffffffffffffffffffffffffffff1614611492576040517f5fc483c500000000000000000000000000000000000000000000000000000000815260040160405180910390fd5b600460009054906101000a900473ffffffffffffffffffffffffffffffffffffffff1673ffffffffffffffffffffffffffffffffffffffff16ff5b600460009054906101000a900473ffffffffffffffffffffffffffffffffffffffff1673ffffffffffffffffffffffffffffffffffffffff163373ffffffffffffffffffffffffffffffffffffffff1614611554576040517f5fc483c500000000000000000000000000000000000000000000000000000000815260040160405180910390fd5b60008060006101000a81548160ff021916908315150217905550565b60008060009054906101000a900460ff16156115c1576040517f08c379a00000000000000000000000000000000000000000000000000000000081526004016115b890611f43565b60405180910390fd5b600083336040516020016115d6929190611e51565b60405160208183030381529060405280519060200120905060006003600081548092919061160390612058565b9190505590503373ffffffffffffffffffffffffffffffffffffffff166001600084815260200190815260200160002060030160009054906101000a900473ffffffffffffffffffffffffffffffffffffffff1673ffffffffffffffffffffffffffffffffffffffff1614156116a5576040517ffa8b1a5f00000000000000000000000000000000000000000000000000000000815260040160405180910390fd5b8160026000838152602001908152602001600020819055506040518060a001604052808281526020013481526020018581526020013373ffffffffffffffffffffffffffffffffffffffff16815260200160006002811115611730577f4e487b7100000000000000000000000000000000000000000000000000000000600052602160045260246000fd5b8152506001600084815260200190815260200160002060008201518160000155602082015181600101556040820151816002015560608201518160030160006101000a81548173ffffffffffffffffffffffffffffffffffffffff021916908373ffffffffffffffffffffffffffffffffffffffff16021790555060808201518160030160146101000a81548160ff021916908360028111156117fc577f4e487b7100000000000000000000000000000000000000000000000000000000600052602160045260246000fd5b0217905550905050819250505092915050565b60008054906101000a900460ff1661185c576040517f08c379a000000000000000000000000000000000000000000000000000000000815260040161185390611f23565b60405180910390fd5b600460009054906101000a900473ffffffffffffffffffffffffffffffffffffffff1673ffffffffffffffffffffffffffffffffffffffff163373ffffffffffffffffffffffffffffffffffffffff16146118e3576040517f5fc483c500000000000000000000000000000000000000000000000000000000815260040160405180910390fd5b6000600460009054906101000a900473ffffffffffffffffffffffffffffffffffffffff1673ffffffffffffffffffffffffffffffffffffffff164760405161192b90611e7d565b60006040518083038185875af1925050503d8060008114611968576040519150601f19603f3d011682016040523d82523d6000602084013e61196d565b606091505b50509050806119b1576040517f08c379a00000000000000000000000000000000000000000000000000000000081526004016119a890611ee3565b60405180910390fd5b50565b600460009054906101000a900473ffffffffffffffffffffffffffffffffffffffff1673ffffffffffffffffffffffffffffffffffffffff163373ffffffffffffffffffffffffffffffffffffffff1614611a3b576040517f5fc483c500000000000000000000000000000000000000000000000000000000815260040160405180910390fd5b80600460009054906101000a900473ffffffffffffffffffffffffffffffffffffffff1673ffffffffffffffffffffffffffffffffffffffff168173ffffffffffffffffffffffffffffffffffffffff161415611ac4576040517fc0159e0e00000000000000000000000000000000000000000000000000000000815260040160405180910390fd5b81600460006101000a81548173ffffffffffffffffffffffffffffffffffffffff021916908373ffffffffffffffffffffffffffffffffffffffff1602179055505050565b6040518060a00160405280600081526020016000815260200160008019168152602001600073ffffffffffffffffffffffffffffffffffffffff16815260200160006002811115611b83577f4e487b7100000000000000000000000000000000000000000000000000000000600052602160045260246000fd5b81525090565b600081359050611b98816121f5565b92915050565b600081359050611bad8161220c565b92915050565b600081359050611bc281612223565b92915050565b600081359050611bd78161223a565b92915050565b600060208284031215611bef57600080fd5b6000611bfd84828501611b89565b91505092915050565b60008060408385031215611c1957600080fd5b6000611c2785828601611b9e565b9250506020611c3885828601611bb3565b9150509250929050565b600060208284031215611c5457600080fd5b6000611c6284828501611bb3565b91505092915050565b600060208284031215611c7d57600080fd5b6000611c8b84828501611bc8565b91505092915050565b611c9d81611fb5565b82525050565b611cac81611fb5565b82525050565b611cc3611cbe82611fb5565b6120a1565b82525050565b611cd281611fc7565b82525050565b611ce9611ce482611fd3565b6120b3565b82525050565b611cf881611fff565b82525050565b611d0781611fff565b82525050565b611d1681612046565b82525050565b6000611d29600f83611fa4565b9150611d348261213a565b602082019050919050565b6000611d4c601083611fa4565b9150611d5782612163565b602082019050919050565b6000611d6f601783611fa4565b9150611d7a8261218c565b602082019050919050565b6000611d92600083611f99565b9150611d9d826121b5565b600082019050919050565b6000611db5601d83611fa4565b9150611dc0826121b8565b602082019050919050565b60a082016000820151611de16000850182611e33565b506020820151611df46020850182611e33565b506040820151611e076040850182611cef565b506060820151611e1a6060850182611c94565b506080820151611e2d6080850182611d0d565b50505050565b611e3c8161203c565b82525050565b611e4b8161203c565b82525050565b6000611e5d8285611cd8565b601082019150611e6d8284611cb2565b6014820191508190509392505050565b6000611e8882611d85565b9150819050919050565b6000602082019050611ea76000830184611ca3565b92915050565b6000602082019050611ec26000830184611cc9565b92915050565b6000602082019050611edd6000830184611cfe565b92915050565b60006020820190508181036000830152611efc81611d1c565b9050919050565b60006020820190508181036000830152611f1c81611d3f565b9050919050565b60006020820190508181036000830152611f3c81611d62565b9050919050565b60006020820190508181036000830152611f5c81611da8565b9050919050565b600060a082019050611f786000830184611dcb565b92915050565b6000602082019050611f936000830184611e42565b92915050565b600081905092915050565b600082825260208201905092915050565b6000611fc08261201c565b9050919050565b60008115159050919050565b60007fffffffffffffffffffffffffffffffff0000000000000000000000000000000082169050919050565b6000819050919050565b6000819050612017826121e1565b919050565b600073ffffffffffffffffffffffffffffffffffffffff82169050919050565b6000819050919050565b600061205182612009565b9050919050565b60006120638261203c565b91507fffffffffffffffffffffffffffffffffffffffffffffffffffffffffffffffff821415612096576120956120cf565b5b600182019050919050565b60006120ac826120bd565b9050919050565b6000819050919050565b60006120c88261212d565b9050919050565b7f4e487b7100000000000000000000000000000000000000000000000000000000600052601160045260246000fd5b7f4e487b7100000000000000000000000000000000000000000000000000000000600052602160045260246000fd5b60008160601b9050919050565b7f5472616e73666572206661696c65640000000000000000000000000000000000600082015250565b7f5472616e73666572206661696c65642100000000000000000000000000000000600082015250565b7f436f6e7472616374206973206e6f742073746f70706564000000000000000000600082015250565b50565b7f436f6e74726163742069732063757272656e746c792073746f70706564000000600082015250565b600381106121f2576121f16120fe565b5b50565b6121fe81611fb5565b811461220957600080fd5b50565b61221581611fd3565b811461222057600080fd5b50565b61222c81611fff565b811461223757600080fd5b50565b6122438161203c565b811461224e57600080fd5b5056fea264697066735822122088383a6598cf1e7e6d12a6cee95bae349eca951124f5d879cc59f5abb657c75264736f6c63430008040033",
  "immutableReferences": {},
  "source": "// SPDX-License-Identifier: MIT\npragma solidity >=0.4.22 <0.9.0;\n\ncontract CourseMarketplace {\n\n    // Type declarations\n    enum State {\n        Purchased,\n        Activated,\n        Deactivated\n    }\n\n    struct Course {\n        uint256 id; // 256 bits = 32 bytes - one slot\n        uint256 price; // 256 bits = 32 bytes - one slot\n        bytes32 proof; // proof that the user is the owner of the course. 32 bytes - one slot.\n        address owner; // 20 bytes\n        State state; // 1 byte\n        // owner and state form one slot.\n        // overall 4 slots.\n    }\n\n    // State variables\n    bool public isStopped = false;\n    mapping(bytes32 => Course) private ownedCourses; // mapping of course hash to course struct\n    mapping(uint => bytes32) private ownedCourseHashes; // mapping of course id to course hash\n    uint private totalOwnedCourses; // total number of courses owned by the user'\n    address payable private owner; // address of the user who owns the contract\n\n    // Events/Errors\n    /// You already own this course.\n    error CourseAlreadyOwned(); // error message for when the user tries to purchase a course they already own\n    /// Only the owner can perform this action.\n    error OnlyOwner();\n    /// You are already the owner.\n    error AlreadyOwner();\n    /// This instance of the course has not been created\n    error CourseNotCreated();\n    /// Course has invalid state\n    error InvalidState();\n    /// You do not own this course so you cannot repurchase it.\n    error InvalidCourseOwner();\n\n    // Modifiers\n    modifier onlyOwner() {\n        if (msg.sender != owner) revert OnlyOwner();\n        _;\n    }\n\n    modifier alreadyOwner(address newOwner) {\n        if (newOwner == owner) revert AlreadyOwner();\n        _;\n    }\n\n    modifier courseExists(bytes32 courseHash) {\n        if (ownedCourses[courseHash].owner == 0x0000000000000000000000000000000000000000) revert CourseNotCreated();\n        _;\n    }\n\n    modifier coursePurchased(bytes32 courseHash) {\n        Course memory course = ownedCourses[courseHash];\n        if (course.state != State.Purchased) revert InvalidState();\n        _;\n    }\n\n    modifier ownsCourse(bytes32 courseHash) {\n        Course memory course = ownedCourses[courseHash];\n        if (course.owner != msg.sender) revert InvalidCourseOwner();\n        _;\n    }\n\n    modifier courseDeactivated(bytes32 courseHash) {\n        Course memory course = ownedCourses[courseHash];\n        if (course.state != State.Deactivated) revert InvalidState();\n        _;\n    }\n\n    modifier onlyWhenNotStopped() {\n        require(!isStopped, \"Contract is currently stopped\");\n        _;\n    }\n\n    modifier onlyWhenStopped() {\n        require(isStopped, \"Contract is not stopped\");\n        _;\n    }\n\n    // Functions\n\n    // Constructor\n    constructor() {\n        owner = payable(msg.sender);\n    }\n\n    receive() external payable {}\n\n    // External\n    function withdraw(uint amount) external onlyOwner {\n        (bool success,) = owner.call{value : amount}(\"\");\n        require(success, \"Transfer failed\");\n    }\n\n    function emergencyWithdraw() external onlyWhenStopped onlyOwner {\n        (bool success,) = owner.call{value : address(this).balance}(\"\");\n        require(success, \"Transfer failed\");\n    }\n\n    function selfDestruct() external onlyWhenStopped onlyOwner {\n        selfdestruct(owner);\n    }\n\n    function stopContract() external onlyOwner {\n        isStopped = true;\n    }\n\n    function resumeContract() external onlyOwner {\n        isStopped = false;\n    }\n\n    function purchaseCourse(bytes16 courseId, bytes32 proof) external payable onlyWhenNotStopped returns (bytes32) {\n        bytes32 courseHash = keccak256(abi.encodePacked(courseId, msg.sender));\n        uint id = totalOwnedCourses++;\n        if (ownedCourses[courseHash].owner == msg.sender) {\n            revert CourseAlreadyOwned();\n        }\n        ownedCourseHashes[id] = courseHash;\n        ownedCourses[courseHash] = Course({\n        id : id,\n        price : msg.value,\n        proof : proof,\n        owner : msg.sender,\n        state : State.Purchased\n        });\n        return courseHash;\n\n\n        /**\n        * Examples of i/o for this function:\n        * id:\"11\" = 0x00000000000000000000000000003131\n        * proof: 0x0000000000000000000000000000313000000000000000000000000000003130\n        * msg.sender = 0x5B38Da6a701c568545dCfcB03FcB875f56beddC4\n        * courseHash: keccak256(id, sender) = 0x4c5428d7da43374870df67dac91d41864c368325fc95a82183d7c752ae2d878c\n        */\n    }\n\n    function repurchaseCourse(bytes32 courseHash)\n    external\n    payable\n    onlyWhenNotStopped\n    courseExists(courseHash)\n    ownsCourse(courseHash)\n    courseDeactivated(courseHash)\n    {\n        Course storage course = ownedCourses[courseHash];\n        course.state = State.Purchased;\n        course.price = msg.value;\n    }\n\n    function activateCourse(bytes32 courseHash)\n    external\n    onlyOwner\n    onlyWhenNotStopped\n    courseExists(courseHash)\n    coursePurchased(courseHash)\n    {\n        Course storage course = ownedCourses[courseHash];\n        // since this is a storage variable any changes made to it are applied to the course in storage\n        course.state = State.Activated;\n    }\n\n    function deactivateCourse(bytes32 courseHash)\n    external\n    onlyOwner\n    onlyWhenNotStopped\n    courseExists(courseHash)\n    coursePurchased(courseHash) {\n        Course storage course = ownedCourses[courseHash];\n        (bool success,) = course.owner.call{value : course.price}(\"\");\n        require(success, \"Transfer failed!\");\n        course.state = State.Deactivated;\n        course.price = 0;\n    }\n\n    function getCourseCount() external view returns (uint) {\n        return totalOwnedCourses;\n    }\n\n    function getCourseHash(uint id) external view returns (bytes32) {\n        return ownedCourseHashes[id];\n    }\n\n    function getCourseByHash(bytes32 courseHash) external view returns (Course memory) {\n        return ownedCourses[courseHash];\n    }\n\n    function getContractOwner() external view returns (address) {\n        return owner;\n    }\n\n    function transferOwnership(address newOwner) external onlyOwner alreadyOwner(newOwner) {\n        owner = payable(newOwner);\n    }\n\n}",
  "sourcePath": "/home/aadivyaraushan/Documents/Coding/web3/solidity-ethereum-course/blockchain/marketplace-eth/contracts/CourseMarketplace.sol",
  "compiler": {
    "name": "solc",
    "version": "0.8.4+commit.c7e474f2.Emscripten.clang"
  },
  "schemaVersion": "3.4.8",
  "updatedAt": "2022-07-30T14:47:26.498Z",
  "networkType": "ethereum",
  "devdoc": {
    "kind": "dev",
    "methods": {},
    "version": 1
  },
  "userdoc": {
    "errors": {
      "AlreadyOwner()": [
        {
          "notice": "You are already the owner."
        }
      ],
      "CourseAlreadyOwned()": [
        {
          "notice": "You already own this course."
        }
      ],
      "CourseNotCreated()": [
        {
          "notice": "This instance of the course has not been created"
        }
      ],
      "InvalidCourseOwner()": [
        {
          "notice": "You do not own this course so you cannot repurchase it."
        }
      ],
      "InvalidState()": [
        {
          "notice": "Course has invalid state"
        }
      ],
      "OnlyOwner()": [
        {
          "notice": "Only the owner can perform this action."
        }
      ]
    },
    "kind": "user",
    "methods": {},
    "version": 1
  }
}